{
  "contractName": "AddressBook",
  "abi": [
    {
      "constant": true,
      "inputs": [
        {
          "internalType": "address",
          "name": "addr",
          "type": "address"
        }
      ],
      "name": "getAddressArray",
      "outputs": [
        {
          "internalType": "address[]",
          "name": "",
          "type": "address[]"
        }
      ],
      "payable": false,
      "stateMutability": "view",
      "type": "function"
    },
    {
      "constant": false,
      "inputs": [
        {
          "internalType": "address",
          "name": "addr",
          "type": "address"
        },
        {
          "internalType": "string",
          "name": "addrAlias",
          "type": "string"
        }
      ],
      "name": "addAddress",
      "outputs": [],
      "payable": false,
      "stateMutability": "nonpayable",
      "type": "function"
    },
    {
      "constant": false,
      "inputs": [
        {
          "internalType": "address",
          "name": "addr",
          "type": "address"
        }
      ],
      "name": "removeAddress",
      "outputs": [],
      "payable": false,
      "stateMutability": "nonpayable",
      "type": "function"
    },
    {
      "constant": true,
      "inputs": [
        {
          "internalType": "address",
          "name": "addrowner",
          "type": "address"
        },
        {
          "internalType": "address",
          "name": "addr",
          "type": "address"
        }
      ],
      "name": "getAlias",
      "outputs": [
        {
          "internalType": "string",
          "name": "",
          "type": "string"
        }
      ],
      "payable": false,
      "stateMutability": "view",
      "type": "function"
    }
  ],
  "bytecode": "0x608060405234801561001057600080fd5b50610b1c806100206000396000f3fe608060405234801561001057600080fd5b506004361061004c5760003560e01c8063221a2fdf146100515780634ba79dfe1461012e578063d033c45614610172578063da97754e1461024d575b600080fd5b6100b36004803603604081101561006757600080fd5b81019080803573ffffffffffffffffffffffffffffffffffffffff169060200190929190803573ffffffffffffffffffffffffffffffffffffffff1690602001909291905050506102e6565b6040518080602001828103825283818151815260200191508051906020019080838360005b838110156100f35780820151818401526020810190506100d8565b50505050905090810190601f1680156101205780820380516001836020036101000a031916815260200191505b509250505060405180910390f35b6101706004803603602081101561014457600080fd5b81019080803573ffffffffffffffffffffffffffffffffffffffff169060200190929190505050610405565b005b61024b6004803603604081101561018857600080fd5b81019080803573ffffffffffffffffffffffffffffffffffffffff169060200190929190803590602001906401000000008111156101c557600080fd5b8201836020820111156101d757600080fd5b803590602001918460018302840111640100000000831117156101f957600080fd5b91908080601f016020809104026020016040519081016040528093929190818152602001838380828437600081840152601f19601f8201169050808301925050505050505091929192905050506107cb565b005b61028f6004803603602081101561026357600080fd5b81019080803573ffffffffffffffffffffffffffffffffffffffff169060200190929190505050610902565b6040518080602001828103825283818151815260200191508051906020019060200280838360005b838110156102d25780820151818401526020810190506102b7565b505050509050019250505060405180910390f35b6060600160008473ffffffffffffffffffffffffffffffffffffffff1673ffffffffffffffffffffffffffffffffffffffff16815260200190815260200160002060008373ffffffffffffffffffffffffffffffffffffffff1673ffffffffffffffffffffffffffffffffffffffff1681526020019081526020016000208054600181600116156101000203166002900480601f0160208091040260200160405190810160405280929190818152602001828054600181600116156101000203166002900480156103f85780601f106103cd576101008083540402835291602001916103f8565b820191906000526020600020905b8154815290600101906020018083116103db57829003601f168201915b5050505050905092915050565b60008060003373ffffffffffffffffffffffffffffffffffffffff1673ffffffffffffffffffffffffffffffffffffffff16815260200190815260200160002080549050905060008090505b818110156107c6576000803373ffffffffffffffffffffffffffffffffffffffff1673ffffffffffffffffffffffffffffffffffffffff16815260200190815260200160002081815481106104a257fe5b9060005260206000200160009054906101000a900473ffffffffffffffffffffffffffffffffffffffff1673ffffffffffffffffffffffffffffffffffffffff168373ffffffffffffffffffffffffffffffffffffffff1614156107b9576000803373ffffffffffffffffffffffffffffffffffffffff1673ffffffffffffffffffffffffffffffffffffffff16815260200190815260200160002080549050600110801561055357506001820381105b15610661576000803373ffffffffffffffffffffffffffffffffffffffff1673ffffffffffffffffffffffffffffffffffffffff16815260200190815260200160002060018303815481106105a457fe5b9060005260206000200160009054906101000a900473ffffffffffffffffffffffffffffffffffffffff166000803373ffffffffffffffffffffffffffffffffffffffff1673ffffffffffffffffffffffffffffffffffffffff168152602001908152602001600020828154811061061857fe5b9060005260206000200160006101000a81548173ffffffffffffffffffffffffffffffffffffffff021916908373ffffffffffffffffffffffffffffffffffffffff1602179055505b6000803373ffffffffffffffffffffffffffffffffffffffff1673ffffffffffffffffffffffffffffffffffffffff16815260200190815260200160002060018303815481106106ad57fe5b9060005260206000200160006101000a81549073ffffffffffffffffffffffffffffffffffffffff02191690556000803373ffffffffffffffffffffffffffffffffffffffff1673ffffffffffffffffffffffffffffffffffffffff16815260200190815260200160002080548091906001900361072b91906109ce565b50600160003373ffffffffffffffffffffffffffffffffffffffff1673ffffffffffffffffffffffffffffffffffffffff16815260200190815260200160002060008473ffffffffffffffffffffffffffffffffffffffff1673ffffffffffffffffffffffffffffffffffffffff16815260200190815260200160002060006107b491906109fa565b6107c6565b8080600101915050610451565b505050565b6000803373ffffffffffffffffffffffffffffffffffffffff1673ffffffffffffffffffffffffffffffffffffffff1681526020019081526020016000208290806001815401808255809150509060018203906000526020600020016000909192909190916101000a81548173ffffffffffffffffffffffffffffffffffffffff021916908373ffffffffffffffffffffffffffffffffffffffff1602179055505080600160003373ffffffffffffffffffffffffffffffffffffffff1673ffffffffffffffffffffffffffffffffffffffff16815260200190815260200160002060008473ffffffffffffffffffffffffffffffffffffffff1673ffffffffffffffffffffffffffffffffffffffff16815260200190815260200160002090805190602001906108fd929190610a42565b505050565b60606000808373ffffffffffffffffffffffffffffffffffffffff1673ffffffffffffffffffffffffffffffffffffffff1681526020019081526020016000208054806020026020016040519081016040528092919081815260200182805480156109c257602002820191906000526020600020905b8160009054906101000a900473ffffffffffffffffffffffffffffffffffffffff1673ffffffffffffffffffffffffffffffffffffffff1681526020019060010190808311610978575b50505050509050919050565b8154818355818111156109f5578183600052602060002091820191016109f49190610ac2565b5b505050565b50805460018160011615610100020316600290046000825580601f10610a205750610a3f565b601f016020900490600052602060002090810190610a3e9190610ac2565b5b50565b828054600181600116156101000203166002900490600052602060002090601f016020900481019282601f10610a8357805160ff1916838001178555610ab1565b82800160010185558215610ab1579182015b82811115610ab0578251825591602001919060010190610a95565b5b509050610abe9190610ac2565b5090565b610ae491905b80821115610ae0576000816000905550600101610ac8565b5090565b9056fea265627a7a7231582018fa76d6d057175afac29e971b836b23c9776b62aeb65120c00f26510fda188264736f6c63430005100032",
  "source": "pragma solidity ^0.5.16;\r\n\r\ncontract AddressBook {\r\n\r\n    mapping(address => address[]) private _addresses;\r\n    mapping(address => mapping(address => string)) private _aliases;\r\n\r\n    function getAddressArray(address addr) public view returns (address[] memory) {\r\n        return _addresses[addr];\r\n    }\r\n\r\n    function addAddress(address addr, string memory addrAlias) public {\r\n        _addresses[msg.sender].push(addr);\r\n        _aliases[msg.sender][addr] = addrAlias;\r\n    }\r\n\r\n    function removeAddress(address addr) public {\r\n        // get the length of the addresses in the array from the msg sender\r\n        uint length = _addresses[msg.sender].length;\r\n        for(uint i = 0; i < length; i++) {\r\n            // if the address that you want to remove = one of the addresses you own \r\n            //and is one of the iterations of the loop\r\n            if (addr == _addresses[msg.sender][i]) {\r\n                //once we find the item in the array we need to delete the item\r\n                //then shift each item down 1.  You can't just delete an item in the middle of an array\r\n                //make sure the length of the address is not < 1 (this is needed because we are going to reorder the array)\r\n                if(1 < _addresses[msg.sender].length && i < length-1) {\r\n                    //shift the last item in the array to the position of the item that we are removing\r\n                    _addresses[msg.sender][i] = _addresses[msg.sender][length-1];\r\n                }\r\n                // delete the item we just swapped from\r\n                delete _addresses[msg.sender][length-1];\r\n                //then decrement the length of the array by 1\r\n                _addresses[msg.sender].length--;\r\n                //delete the alias for it\r\n                delete _aliases[msg.sender][addr];\r\n                //_state[msg.sender]++;\r\n                break;\r\n            \r\n            }\r\n        }\r\n    }\r\n    \r\n    //Gets the alias for your address\r\n    function getAlias(address addrowner, address addr) public view returns (string memory) {\r\n        return _aliases[addrowner][addr];\r\n    }\r\n}",
  "sourcePath": "F:/Blockchain/Tutorials/address_book/contracts/AddressBook.sol",
  "compiler": {
    "name": "solc",
    "version": "0.5.16+commit.9c3226ce.Emscripten.clang"
  },
  "schemaVersion": "3.4.1",
  "updatedAt": "2021-05-25T14:33:43.025Z",
  "networkType": "ethereum",
  "devdoc": {
    "methods": {}
  },
  "userdoc": {
    "methods": {}
  }
}